:100000000C9417030C943F030C943F030C943F0390
:100010000C943F030C943F030C943F030C943F0358
:100020000C943F030C9432170C943F030C94CA15A4
:100030000C943F030C943F030C943F030C943F0338
:100040000C949B080C943F030C94BB060C949506EF
:100050000C943F030C943F030C943F030C943F0318
:100060000C94A4170C943F0379047F0485048B043B
:10007000910497049D04140A1B0A220A290A300AD3
:10008000470A370A470A3E0A4E414E494E495459DB
:10009000494E46CDCCCC3D0AD7233C17B7D1387753
:1000A000CC2B329595E6241FB14F0A000020410069
:1000B00000C84200401C4620BCBE4CCA1B0E5AAEB3
:1000C000C59D746364696E6F70737578585B0000CA
:1000D0000000080002010000030407000000000007
:1000E00000000000000000240027002A000000009B
:1000F00000250028002B0000000000003E5B4F5B45
:100100003E3E6B4F6B3E1C3E7C3E1C183C7E3C18BA
:100110001C577D571C1C5E7F5E1C00183C1800FF9E
:10012000E7C3E7FF0018241800FFE7DBE7FF3048CC
:100130003A060E2629792926407F050507407F05C6
:10014000253F5A3CE73C5A7F3E1C1C08081C1C3EBD
:100150007F14227F22145F5F005F5F06097F017FAB
:10016000006689956A606060606094A2FFA294084E
:10017000047E040810207E201008082A1C08081C91
:100180002A08081E101010100C1E0C1E0C30383ED1
:100190003830060E3E0E06000000000000005F0032
:1001A000000007000700147F147F14242A7F2A12FE
:1001B00023130864623649562050000807030000E4
:1001C0001C2241000041221C002A1C7F1C2A080816
:1001D0003E08080080703000080808080800006029
:1001E000600020100804023E5149453E00427F4015
:1001F0000072494949462141494D331814127F1074
:1002000027454545393C4A494931412111090736BD
:1002100049494936464949291E000014000000405A
:100220003400000008142241141414141400412254
:10023000140802015909063E415D594E7C12111203
:100240007C7F494949363E414141227F4141413EFF
:100250007F494949417F090909013E414151737F65
:100260000808087F00417F41002040413F017F088E
:100270001422417F404040407F021C027F7F0408DF
:10028000107F3E4141413E7F090909063E4151210F
:100290005E7F09192946264949493203017F010336
:1002A0003F4040403F1F2040201F3F4038403F63B9
:1002B0001408146303047804036159494D43007F13
:1002C0004141410204081020004141417F040201E4
:1002D0000204404040404000030708002054547886
:1002E000407F284444383844444428384444287FD4
:1002F000385454541800087E090218A4A49C787F2E
:100300000804047800447D40002040403D007F10F8
:1003100028440000417F40007C047804787C080475
:1003200004783844444438FC182424181824241829
:10033000FC7C08040408485454542404043F442416
:100340003C4040207C1C2040201C3C4030403C4431
:10035000281028444C9090907C4464544C440008ED
:10036000364100000077000000413608000201021B
:1003700004023C2623263C1EA1A161123A404020E3
:100380007A3854545559215555794122545478425C
:10039000215554784020545579400C1E5272123920
:1003A00055555559395454545939555454580000D9
:1003B000457C410002457D420001457C407D121193
:1003C000127DF0282528F07C545545002054547C9B
:1003D000547C0A097F4932494949323A4444443AF3
:1003E000324A4848303A4141217A3A424020780026
:1003F0009DA0A07D3D4242423D3D4040403D3C24C9
:10040000FF2424487E4943662B2FFC2F2BFF09290C
:10041000F620C0887E090320545479410000447DB1
:10042000413048484A32384040227A007A0A0A72FB
:100430007D0D19317D2629292F28262929292630A5
:10044000484D4020380808080808080808382F10C8
:10045000C8ACBA2F102834FA00007B000008142A18
:10046000142222142A14085500550055AA55AA55DD
:10047000AAFF55FF55FF000000FF00101010FF00FD
:10048000141414FF001010FF00FF1010F010F014EF
:100490001414FC001414F700FF0000FF00FF1414F4
:1004A000F404FC141417101F10101F101F14141440
:1004B0001F00101010F0000000001F101010101F7F
:1004C00010101010F010000000FF1010101010108D
:1004D000101010FF10000000FF140000FF00FF00CC
:1004E000001F10170000FC04F41414171017141444
:1004F000F404F40000FF00F714141414141414F797
:1005000000F7141414171410101F101F141414F4EF
:10051000141010F010F000001F101F0000001F1436
:10052000000000FC140000F010F01010FF10FF1489
:100530001414FF141010101F00000000F010FFFF33
:10054000FFFFFFF0F0F0F0F0FFFFFF000000000001
:10055000FFFF0F0F0F0F0F3844443844FC4A4A4A3C
:10056000347E02020606027E027E02635549416322
:100570003844443C04407E201E2006027E0202993C
:10058000A5E7A5991C2A492A1C4C7201724C304AD5
:100590004D4D303048784830BC625A463D3E49495E
:1005A00049007E0101017E2A2A2A2A2A44445F4406
:1005B0004440514A444040444A51400000FF010336
:1005C000E080FF000008086B6B0836123624360600
:1005D0000F090F060000181800000010100030402E
:1005E000FF0101001F01011E00191D1712003C3CF4
:1005F0003C3C000000000000000000230026002911
:1006000000040404040404040402020202020203BB
:1006100003030303030102040810204080010204C5
:1006200008102001020408102000262E162E112486
:100630001FBECFEFD8E0DEBFCDBF12E0A0E0B1E03B
:10064000EAEAF8E702C005900D92AA33B107D9F79C
:1006500025E0AAE3B2E001C01D92AE3BB207E1F78C
:1006600013E0C6E1D3E004C02197FE010E940D37DC
:10067000C531D107C9F70E94BF200C94483C0C94A7
:100680000000CF92DF92EF92FF920F931F93CF93D0
:10069000DF936C017A018B01C0E0D0E0CE15DF055D
:1006A00089F0D8016D918D01D601ED91FC910190F9
:1006B000F081E02DC6010995892B11F47E0102C05D
:1006C0002196ECCFC701DF91CF911F910F91FF9041
:1006D000EF90DF90CF900895FC01918D828D981757
:1006E00061F0828DDF01A80FB11D5D968C91928D16
:1006F0009F5F9F73928F90E008958FEF9FEF089513
:10070000FC01918D828D981731F0828DE80FF11DDB
:10071000858D90E008958FEF9FEF0895FC01918DF6
:10072000228D892F90E0805C9F4F821B91098F73EF
:10073000992708958BE293E00E948E0321E0892B94
:1007400009F420E0822F0895FC01848DDF01A80FB9
:10075000B11DA35ABF4F2C91848D90E001968F73E9
:100760009927848FA689B7892C93A089B1898C9108
:1007700080648C93938D848D981306C00288F389CE
:10078000E02D80818F7D80830895EF92FF920F93FB
:100790001F93CF93DF93EC0181E0888F9B8D8C8D2D
:1007A000981305C0E889F989808185FD24C0F62E5B
:1007B0000B8D10E00F5F1F4F0F731127E02E8C8DF4
:1007C000E8120CC00FB607FCFACFE889F9898081DE
:1007D00085FFF5CFCE010E94A403F1CF8B8DFE01E2
:1007E000E80FF11DE35AFF4FF0820B8FEA89FB8976
:1007F0008081806207C0EE89FF896083E889F9897A
:1008000080818064808381E090E0DF91CF911F91AF
:100810000F91FF90EF900895CF93DF93EC01888DB7
:100820008823C9F0EA89FB89808185FD05C0A889F4
:10083000B9898C9186FD0FC00FB607FCF5CF80817A
:1008400085FFF2CFA889B9898C9185FFEDCFCE01C4
:100850000E94A403E7CFDF91CF91089580E090E05C
:10086000892B29F00E949A0381110C9400000895AD
:10087000833081F028F4813099F08230A1F008951E
:100880008730A9F08830B9F08430D1F480918000AD
:100890008F7D03C0809180008F77809380000895C2
:1008A00084B58F7702C084B58F7D84BD0895809113
:1008B000B0008F7703C08091B0008F7D8093B0002F
:1008C0000895CF93DF934770552766277727FA015E
:1008D0003197EC01A881B981E730F10520F4EC5C97
:1008E000FF4F0C940D371496ED91FC91159761E034
:1008F00029C01496ED91FC91159765E023C01496DC
:10090000ED91FC91159764E01DC01496ED91FC915A
:10091000159766E017C01496ED91FC91159762E06B
:1009200011C01496ED91FC9115976AE00BC01496D6
:10093000ED91FC91159768E005C01496ED91FC913E
:10094000159769E0DF91CF910994CF93DF93EC0184
:10095000CB01BA0126E030E040E050E00E94E734ED
:10096000623071058105910559F18CF461157105AD
:1009700081059105F1F06130710581059105C1F5A1
:10098000E881F9810480F581E02D65E02DC06430B7
:1009900071058105910511F1D4F06530710581056E
:1009A000910531F5E881F9810480F581E02D66E05B
:1009B0001BC0E881F9810480F581E02D64E014C05A
:1009C000E881F9810480F581E02D61E00DC0E881C6
:1009D000F9810480F581E02D63E006C0E881F981AA
:1009E0000480F581E02D62E0CE01DF91CF91099482
:1009F000DF91CF9108954370552766277727DC0153
:100A0000ED91FC910480F581E02D423051056105A6
:100A1000710571F0433051056105710559F04130A0
:100A200051056105710511F065E005C066E003C080
:100A30006AE001C069E00994CF93DF93EC01CB0138
:100A4000BA0123E030E040E050E00E94E73461303A
:100A500071058105910581F062307105810591056F
:100A600091F0672B682B692BC1F4E881F981048030
:100A7000F581E02D64E00DC0E881F9810480F58105
:100A8000E02D61E006C0E881F9810480F581E02D68
:100A900062E0CE01DF91CF910994DF91CF9108956B
:100AA0004370552766277727DC01ED91FC91048080
:100AB000F581E02D423051056105710571F043303B
:100AC00051056105710559F0413051056105710508
:100AD00011F062E005C063E003C061E001C060E0C6
:100AE0000994CF93DF93EC0120E030E0A9016B89FA
:100AF0007C898D899E890E94743618161CF4EFA596
:100B0000F8A902C0E9A9FAA9DF91CF9109940E943E
:100B10000A390F931F93CF93DF93EC01888199815A
:100B2000009729F02A813B812617370788F48B012B
:100B30006F5F7F4F0E944038009761F099838883F0
:100B40001B830A832C813D81232B11F4FC0110822D
:100B500081E001C080E0DF91CF911F910F91089556
:100B6000CF93DF93EC0188819981009711F00E9467
:100B7000A837198218821D821C821B821A82DF917B
:100B8000CF910895EF92FF920F931F93CF93DF932E
:100B9000EC01FB0184819581E080F1800C811D8155
:100BA000E114F104B1F00097B9F0080F191FB80172
:100BB000CE010E948905882361F0288139818C81CA
:100BC0009D81B701820F931F0E9418391D830C83EA
:100BD00003C0CE010E94B005CE01DF91CF911F91DD
:100BE0000F91FF90EF900895FC01808191810C940A
:100BF000A837CF92DF92EF92FF920F931F93CF937C
:100C0000DF93CDB7DEB762970FB6F894DEBF0FBEA5
:100C1000CDBF8C01CB01F8011182108213821282A8
:100C20001582148250E09E012F5F3F4F6901B90188
:100C30000E94D131F60101900020E9F731977F0140
:100C4000EC18FD08B701C8010E948905811104C094
:100C5000C8010E94B00508C0F801F582E482B6011F
:100C6000808191810E94183962960FB6F894DEBF98
:100C70000FBECDBFDF91CF911F910F91FF90EF90ED
:100C8000DF90CF900895EF92FF920F931F93CF9331
:100C9000DF93EC01198218821B821A821D821C824A
:100CA0006115710521F18B01FB0101900020E9F72D
:100CB00031977F01E61AF70AB7010E948905811171
:100CC00009C0CE01DF91CF911F910F91FF90EF905E
:100CD0000C94B005FD82EC82B80188819981DF9186
:100CE000CF911F910F91FF90EF900C941839DF91E5
:100CF000CF911F910F91FF90EF90089561157105AD
:100D000079F0FB0101900020E9F73197AF01461B14
:100D1000570BDC01ED91FC910280F381E02D0994E9
:100D200080E090E008950C947E061F920F920FB61B
:100D30000F9211242F933F934F935F936F937F9361
:100D40008F939F93AF93BF93EF93FF938BE293E0C7
:100D50000E94A403FF91EF91BF91AF919F918F915A
:100D60007F916F915F914F913F912F910F900FBEA7
:100D70000F901F9018951F920F920FB60F9211248B
:100D80002F938F939F93EF93FF93E0913B03F09109
:100D90003C038081E0914103F091420382FD12C047
:100DA0009081809144038F5F8F7320914503821758
:100DB00051F0E0914403F0E0E55DFC4F958F8093A6
:100DC000440301C08081FF91EF919F918F912F91FA
:100DD0000F900FBE0F901F901895CF93DF93282F81
:100DE00030E0F901E153FF4F8491F901EB5EF94FD7
:100DF000D491F901EF5FF94FC491CC2391F08111A7
:100E00000E943804EC2FF0E0EE0FFF1FE950FA4F7C
:100E1000A591B491EC91ED2381E090E021F480E084
:100E200002C080E090E0DF91CF9108951F93CF93AF
:100E3000DF93282F30E0F901E153FF4F8491F9014E
:100E4000EB5EF94FD491F901EF5FF94FC491CC23D8
:100E5000C9F0162F81110E943804EC2FF0E0EE0F3C
:100E6000FF1FE351FF4FA591B4918FB7F894111173
:100E700005C09C91ED2FE095E92302C0EC91ED2B8C
:100E8000EC938FBFDF91CF911F910895CF93DF93A4
:100E900090E0FC01EB5EF94F2491FC01EF5FF94F0C
:100EA0008491882361F190E0880F991FFC01ED5136
:100EB000FF4FC591D491FC01E351FF4FA591B4912F
:100EC000611109C09FB7F894888120958223888397
:100ED000EC912E230BC0623061F49FB7F8943881F7
:100EE000822F809583238883EC912E2B2C939FBF98
:100EF00006C08FB7F894E8812E2B28838FBFDF912F
:100F0000CF910895CF93DF93FC012281222359F1E1
:100F1000EC0161E083810E94460761E08C810E94C0
:100F200046078A81843011F0883039F461E08D8180
:100F30000E94460761E08E8106C0833011F0863042
:100F400021F461E08D810E9446078EA58F3F59F004
:100F500061E00E9446076DA581E068278EA5DF91BC
:100F6000CF910C941607DF91CF910895CF93DF9323
:100F7000FC0122812223A9F0EC010190F081E02DF7
:100F80000480F581E02D60E009958EA58F3F49F042
:100F900061E00E9446076DA58EA5DF91CF910C946C
:100FA0001607DF91CF9108958E3008F08E5087702C
:100FB000806480937C0080917A00806480937A00C2
:100FC00080917A0086FDFCCF809178002091790095
:100FD00090E0922B08958230910538F0880F991F88
:100FE000880F991F05970197F1F708950F931F93A5
:100FF000CF93DF93EC01E881F9810480F581E02D46
:101000008C010D5B1F4FD8018C91811102C060E0F3
:1010100001C062E0CE010995E881F9810480F58183
:10102000E02DD8018C91811102C061E001C063E024
:10103000CE0109958BA59CA50E94EB07E881F9815B
:101040000480F581E02DD8018C91811102C060E00F
:1010500001C062E0CE01DF91CF911F910F91099401
:101060003FB7F8948091AB029091AC02A091AD0291
:10107000B091AE0226B5A89B05C02F3F19F001968E
:10108000A11DB11D3FBFBA2FA92F982F8827820F0E
:10109000911DA11DB11DBC01CD0142E0660F771F5E
:1010A000881F991F4A95D1F708958F929F92AF920A
:1010B000BF92CF92DF92EF92FF926B017C010E9470
:1010C00030084B015C01C114D104E104F104F1F0DA
:1010D0000E943008DC01CB0188199909AA09BB09D3
:1010E000883E9340A105B10570F321E0C21AD108F2
:1010F000E108F10888EE880E83E0981EA11CB11C5F
:10110000C114D104E104F10419F7DDCFFF90EF9091
:10111000DF90CF90BF90AF909F908F9008952FB7A2
:10112000F8946091A7027091A8028091A902909111
:10113000AA022FBF08951F920F920FB60F9211248B
:101140002F933F938F939F93AF93BF938091A70269
:101150009091A802A091A902B091AA023091A60292
:1011600023E0230F2D3720F40196A11DB11D05C0EA
:1011700026E8230F0296A11DB11D2093A60280939D
:10118000A7029093A802A093A902B093AA0280910B
:10119000AB029091AC02A091AD02B091AE0201966B
:1011A000A11DB11D8093AB029093AC02A093AD0240
:1011B000B093AE02BF91AF919F918F913F912F91CC
:1011C0000F900FBE0F901F9018951F93CF93DF9332
:1011D000EC01162F8981882331F08E8187FD03C0B1
:1011E00060E00E9446071E838981882341F061E008
:1011F000812F0E94460760E0812F0E941607812FF1
:1012000090E0FC01EF5FF94FE491F0E0EE0FFF1F7B
:10121000E351FF4F259134913B8B2A8BFC01EB5E10
:10122000F94FE491EC8BDF91CF911F9108954F928C
:101230005F926F927F928F929F92AF92BF92CF9266
:10124000DF92EF92FF92CF93DF93EC016A017B0173
:101250008B8C9C8CAD8CBE8C9A01AB01C501B4010A
:101260000E949133882309F449C06BA97CA98DA9F8
:101270009EA90E9498332B013C01A7019601C5014C
:10128000B4010E94CC359B01AC01C301B2010E94A4
:10129000F7330E943E366BAB7CAB8DAB9EABA701A8
:1012A000960160E070E080E090E40E94CC350E94FE
:1012B0007F3626E53EE04DE25FE30E94F73320E013
:1012C00034E244E759E40E94F7336FAB78AF89AF5B
:1012D0009AAFCB8EDC8EED8EFE8ECE01DF91CF915C
:1012E000FF90EF90DF90CF90BF90AF909F908F9046
:1012F0007F906F905F904F900C94CE10DF91CF91C4
:10130000FF90EF90DF90CF90BF90AF909F908F9025
:101310007F906F905F904F900895CF92DF92EF9201
:10132000FF92CF93DF93EC010E9430086B017C01A8
:101330008FA198A5A9A5BAA5B701A601481B590B6D
:101340006A0B7B0B8BA19CA1ADA1BEA148175907CD
:101350006A077B0730F1FE01ED5BFF4F20818B8533
:101360009C85AD85BE85222321F00196A11DB11D6E
:1013700003C00197A109B1098B879C87AD87BE8700
:10138000E881F9814B855C856D857E850680F781D6
:10139000E02DCE010995CFA2D8A6E9A6FAA681E054
:1013A00001C080E0DF91CF91FF90EF90DF90CF9070
:1013B00008950F931F93FC010785108921893289B5
:1013C00043855485658576850417150726073707F5
:1013D000C1F0ED5BFF4F40175107620773071CF424
:1013E00021E0208301C01082FC0143A154A165A12A
:1013F00076A1452B462B472B21F01F910F910C9482
:101400008D0980E01F910F9108950F931F93DC01C8
:101410001296EC910E2F10E009301105C0F5F8017D
:10142000E55CFF4F0C940D37DC01ED91FC910084DD
:10143000F185E02D29C0DC01ED91FC910284F3855A
:10144000E02D22C0DC01ED91FC910484F585E02DB6
:101450001BC0DC01ED91FC910684F785E02D14C0E2
:10146000DC01ED91FC910088F189E02D0DC0DC01DB
:10147000ED91FC910288F389E02D06C0DC01ED912D
:10148000FC910488F589E02D1F910F9109941F911B
:101490000F9108950895FC016370658B8481958197
:1014A00026813781613039F0633029F09187808758
:1014B000338722870895318720879387828708950D
:1014C0002F923F924F925F926F927F928F929F9254
:1014D000AF92BF92CF92DF92EF92FF920F931F9342
:1014E000CF93DF93CDB7DEB76C970FB6F894DEBF1E
:1014F0000FBECDBF9C8F8B8F5B011A011F830E83A4
:101500003701C982DC0158964D915C91599741157C
:10151000510509F0E5C018968D919C9119976817AF
:1015200079070CF0CAC11A968D919C911B972816C9
:1015300039060CF0C2C18C2C912CFB0136E0C39E05
:10154000E00DF11D1124FB87EA871E161F060CF023
:10155000B4C1C40133E0880F991F3A95E1F79D8724
:101560008C87820D931D181619060CF0A6C157968C
:101570008C91811103C0203B08F02F5FAB8DBC8D97
:10158000ED91FC9111970680F781E02DCD012A8F16
:1015900009952A8DB5E02B9F90011124F501359610
:1015A000FF87EE87BB82AA822501A9014A195B0940
:1015B000598B488BC10108969B8B8A8BE889F989E6
:1015C000E40DF51DE950FF4F9491988761013D822C
:1015D0002C82A885A0FF13C0AB8DBC8DED91FC9132
:1015E000B981B13031F40084F185E02D2E813F8145
:1015F00016C00284F385E02DEE80FF801AC0EE81D4
:10160000FF816E167F06F1F0AB8DBC8DED91FC91E4
:10161000B981B13051F40084F185E02D9301A60128
:10162000B2018B8D9C8D09950DC00284F385E02D50
:101630007301840194014C815D816A817B818B8D72
:101640009C8D0995E885E695E887FFEFCF1ADF0ABC
:101650002C813D81280D391D3D832C834A895B896E
:10166000C416D50609F0B5CF5FEF451A550A8A8131
:101670009B81880D991D9B838A83AE85BF854A1601
:101680005B0609F09BCFEE81FF816E167F0609F4A1
:10169000F2C0EB8DFC8DA081B181F981F13079F43C
:1016A000B5016B5F7F4F1C96ED91FC911D978301F7
:1016B00028E030E0A1018B8D9C8D0995DCC06A8506
:1016C0007B85681979091A96ED91FC911B97730136
:1016D0000C851D859401A1018B8D9C8D0995CBC036
:1016E000FA0134969491329765917491291BCB013C
:1016F000B7E02B9F800D911D1124FA0125913491A3
:101700003B8B2A8BFC01459154915B834A83FC01FE
:101710003296C490319654915E87329614913196E8
:10172000D4908981823058F0612E012E000C770808
:10173000AD2D0D2C000CBB0BB987A88704C01986F2
:101740001886612C712CAB8DBC8DED91FC9111979D
:101750000680F781E02DCD010995B9818B2E912C62
:10176000689CC001699C900D789C900D1124FC012F
:10177000EA0DFB1DFD87EC871C82712C612CE12F8B
:10178000110FFF0B95012E0F3F1F3B872A87AC0CD3
:10179000B11CA5014E0F5F1F5F8B4E8BC1018D0DDC
:1017A000911DD7FC9A95998F888F4E85641608F005
:1017B00062C0862D90E048855985480F591F489D85
:1017C0009001499D300D589D300D1124D901A20D75
:1017D000B31DB98BA88BAA84BB844C845D84DC8048
:1017E000BA85DB1AE88DF98DE80FF91FFD8BEC8BBC
:1017F0008D2D8A0D2E893F89A216B306B9F1877007
:1018000061F48A819B810196EA89FB89AA81BB8167
:10181000EA0FFB1F74909B838A8377FE20C0AB8DF9
:10182000BC8DED91FC91B981B13061F40084F185FA
:10183000E02D2E813F814C895D89B5018B8D9C8D7A
:1018400009950DC00284F385E02DEE80FF808401B0
:10185000940148895989B2018B8D9C8D0995770C2B
:10186000EFEFAE1ABE0A480C591CC2CF3C813C0DAA
:101870003C8363949ACFAB8DBC8DED91FC91119715
:101880000288F389E02DCD016C960FB6F894DEBF87
:101890000FBECDBFDF91CF911F910F91FF90EF90C1
:1018A000DF90CF90BF90AF909F908F907F906F9080
:1018B0005F904F903F902F9009946C960FB6F894DC
:1018C000DEBF0FBECDBFDF91CF911F910F91FF9073
:1018D000EF90DF90CF90BF90AF909F908F907F90D0
:1018E0006F905F904F903F902F900895AF92BF926E
:1018F000CF92EF92FF920F931F93CF93DF93EC0160
:10190000262F888D998D009709F040C06A3059F4D0
:101910001D861C862C898E859F8538E0239F800D2F
:10192000911D112441C06D3009F4AAC08E8988230D
:10193000C1F03C898C859D8546E0349F800D911DCA
:10194000112448855985481759075CF41D861C8663
:101950008E859F8548E0349F800D911D11249F87BF
:101960008E87EA88FB88088919894E855F856C8592
:101970007D85CC88CE010E94600A2C898C859D854E
:1019800036E0239F800D911D112442C06A3079F406
:101990001D861C862C89FC013696E4918E859F85D8
:1019A0002E9F800D911D11249F878E8769C06D30F9
:1019B00009F466C0FC0134963491631708F460C0E2
:1019C0003196E491E61708F45BC0FC013296A590CD
:1019D000B490462F50E0431B510937E0349FB001CB
:1019E000359F700D1124A60EB71EF5013296349165
:1019F0003196E491332311F0E1110DC0F5013496D5
:101A0000E4912C898C859D85E29F800D911D112488
:101A10009D878C8735C0F501359644915E895523A5
:101A200011F16C89E32FF0E0E40FF11D47FDFA9509
:101A30006E9FD0016F9FB00D11244C855D854A0FBC
:101A40005B1FE885F985E417F5076CF41D861C8695
:101A5000FC013696E4918E859F856E9F800D911DC9
:101A600011249F878E87EA88FB88088919894E850B
:101A70005F856C857D85CC88CE010E94600ABECFD3
:101A800081E090E0DF91CF911F910F91FF90EF9057
:101A9000CF90BF90AF9008956F927F928F929F9258
:101AA000AF92BF92CF92DF92EF92FF920F931F936C
:101AB000CF93DF93EC014B015A0169013801E881B2
:101AC000F9810680F781E02D0995E881F981068486
:101AD000F785E02D87019601A501B401CE01099596
:101AE000E881F981A501460D571D41505109068431
:101AF000F785E02D9601B401CE010995E881F981C1
:101B00000484F585E02D9301A501B401CE0109956A
:101B1000E881F981C80CD91CB601615071090484AF
:101B2000F585E02D9301A501CE010995E881F981A4
:101B30000288F389E02DCE01DF91CF911F910F91A3
:101B4000FF90EF90DF90CF90BF90AF909F908F90DD
:101B50007F906F900994CF92DF92EF92FF920F9354
:101B60001F93CF93DF9300D000D000D0CDB7DEB766
:101B70006C01DC01ED91FC916217730789F4041785
:101B800015072CF4942F852FA801092F182F041B5B
:101B9000150B98012F5F3F4F008CF18DE02D12C087
:101BA0004017510709F5261737072CF4962F872F72
:101BB000B901292F382F261B370B2F5F3F4F028C7F
:101BC000F38DE02D8701C601099526960FB6F8948E
:101BD000DEBF0FBECDBFDF91CF911F910F91FF9060
:101BE000EF90DF90CF9008950680F781E02D2D8350
:101BF0003E834B835C8369837A830995D601ED919B
:101C0000FC910088F189E02D2D813E814B815C8122
:101C100069817A81C6010995D601ED91FC9102880E
:101C2000F389E02DC60126960FB6F894DEBF0FBEED
:101C3000CDBFDF91CF911F910F91FF90EF90DF907B
:101C4000CF900994EF92FF920F931F93DC01ED91D7
:101C5000FC9111971A960D911C911B9718962D9136
:101C60003C911997048CF58DE02D7B0140E050E00C
:101C700060E070E009951F910F91FF90EF9008953B
:101C80004F925F926F927F928F929F92AF92BF928C
:101C9000CF92DF92EF92FF920F931F93CF93DF9338
:101CA00000D0CDB7DEB76C015A0139014801DC0123
:101CB000ED91FC910680F781E02D69837A83099587
:101CC0006981462E7A81572E640C751CD601ED91E0
:101CD000FC91461457046CF40484F585E02D8701CB
:101CE0009401A501B201C6010995BFEF4B1A5B0A29
:101CF000EDCF0288F389E02DC6010F900F90DF91A0
:101D0000CF911F910F91FF90EF90DF90CF90BF90F8
:101D1000AF909F908F907F906F905F904F900994BD
:101D2000AF92BF92CF92DF92EF92FF920F931F93E9
:101D3000CF93DF9300D000D0CDB7DEB75C0169014F
:101D4000DC01ED91FC910680F781E02D4B835C83F3
:101D500069837A830995D501ED91FC9169817A8136
:101D60009B012C0D3D1D215031090088F189E02D8A
:101D700078014B815C818A01C5010995D501ED91FE
:101D8000FC910288F389E02DC5010F900F900F9010
:101D90000F90DF91CF911F910F91FF90EF90DF9007
:101DA000CF90BF90AF900994AF92BF92CF92DF9245
:101DB000EF92FF920F931F93CF93DF9300D000D049
:101DC000CDB7DEB75C016901DC01ED91FC910680C5
:101DD000F781E02D4B835C8369837A830995D50174
:101DE000ED91FC914B815C81C40ED51EB1E0CB1A04
:101DF000D1080088F189E02D7801860169817A8116
:101E00009B01C5010995D501ED91FC910288F389EB
:101E1000E02DC5010F900F900F900F90DF91CF91A3
:101E20001F910F91FF90EF90DF90CF90BF90AF90F8
:101E300009940895EF92FF920F931F93DC01ED91A7
:101E4000FC91048CF58DE02D09951F910F91FF9069
:101E5000EF9008950F931F93DC01ED91FC91028C9C
:101E6000F38DE02D09951F910F9108950F931F9306
:101E7000DC01ED91FC91008CF18DE02D09951F9115
:101E80000F910895DC01ED91FC910480F581E02D26
:101E9000099408952F923F924F925F926F927F9292
:101EA0008F929F92AF92BF92CF92DF92EF92FF926A
:101EB0000F931F93CF93DF9300D01F92CDB7DEB760
:101EC0004C017B836A836A01590117019801241B25
:101ED000350B37FF03C0319521953109C5014A8182
:101EE0005B81841B950B97FF03C0919581959109A8
:101EF00051E059838217930714F019820BC09A2D71
:101F00008B2D5801092F182F9A818B81DB82CA8271
:101F1000C92ED82E8A819B81A816B9065CF49C2D07
:101F20008D2D6801092F182F9A818B81BB82AA827F
:101F3000A92EB82E2501AA81BB814A1A5B0A380155
:101F40006C187D0877FE03C071946194710872016A
:101F500057FE03C0BFEFEB1AFB0AF594E794C016D7
:101F6000D1061CF00FEF1FEF1FC001E010E01CC0F6
:101F7000D401ED91FC91B9810084F185E02D9101AE
:101F8000BB23C1F04A815B81B601C4010995E61803
:101F9000F708F7FE04C0C00ED11EE40CF51CEA8160
:101FA000FB813196FB83EA834A815B81A416B506E7
:101FB000FCF604C0A6016A817B81E7CF0F900F90E9
:101FC0000F90DF91CF911F910F91FF90EF90DF90D5
:101FD000CF90BF90AF909F908F907F906F905F90C9
:101FE0004F903F902F90089548305105F0F46031A4
:101FF0007105D8F4440F551FFC01E40FF51F81E073
:1020000090E002C0880F991F6A95E2F7232B29F010
:10201000228D338D822B932B06C080959095228D37
:10202000338D82239323938F828F0895CF92DF92F3
:10203000EF92FF920F931F93CF93DF93FC012281C6
:10204000243041F0283031F0233031F0263021F0B7
:1020500012E003C014E001C013E0EC012796E12C6C
:10206000F12CC62ED12C01E0C6010E2C02C0959594
:1020700087950A94E2F7688180FD6027FE01349716
:1020800080810E941607FFEFEF1AFF0A2196E116E2
:1020900058F3DF91CF911F910F91FF90EF90DF9058
:1020A000CF9008954F925F926F927F92AF92BF92BE
:1020B000CF92DF92EF92FF920F931F93CF93DF9314
:1020C000EC015A018B012B893C894D895E89B50150
:1020D000C8010E949133882309F451C0CF88D88C5D
:1020E000E98CFA8C2601370177FA709477F87094AE
:1020F000A3019201B501C8010E94913387FD0BC075
:10210000A7019601B501C8010E94743618162CF07B
:102110006501780102C07301620120E030E0A9018D
:10212000C701B6010E949133811105C01BA21CA2F8
:102130001DA21EA220C0A701960160E074E284E700
:1021400099E40E94CC359F770E9445366BA37CA30F
:102150008DA39EA35E0183E4A80EB11C11E020E0D4
:1021600030E0A901C701B6010E94743618160CF0C0
:1021700010E0F5011083CB8ADC8AED8AFE8ADF91BC
:10218000CF911F910F91FF90EF90DF90CF90BF9074
:10219000AF907F906F905F904F9008952F923F92F5
:1021A0004F925F926F927F928F929F92AF92BF9267
:1021B000CF92DF92EF92FF920F931F93CF93DF9313
:1021C00000D000D0CDB7DEB71C01FC018784908819
:1021D000A188B28883859485A585B685881A990AD1
:1021E000AA0ABB0A63897489858996899B01AC0117
:1021F0000E94F7336B017C01F101638D748D858D35
:10220000968D9B01AC010E9460359B01AC01C7011A
:10221000B6010E94CC350E943E3681149104A1047F
:10222000B104A1F462307105810591050CF07CC008
:10223000F10113A214A215A216A2138A148A158AF8
:10224000168A13AA14AA15AA16AA03C1F10103A992
:1022500014A925A936A9ED5BFF4F181419041A0417
:102260001B04FCF410161106120613064CF4681534
:1022700079058A059B054CF52081211155C025C0A3
:10228000011511052105310509F44EC068157905C0
:102290008A059B050CF048C08081882309F444C05E
:1022A00037C01016110612061306F4F40027112782
:1022B0009801081919092A093B0960177107820753
:1022C00093071CF42081222379F19B01AC0188271C
:1022D0009927DC01821B930BA40BB50BF10183AB97
:1022E00094ABA5ABB6AB20C0011511052105310596
:1022F000D9F0CC24DD247601C818D908EA08FB08F7
:102300006C157D058E059F057CF4808181110CC0C4
:1023100030952095109501951F4F2F4F3F4FF1019C
:1023200003AB14AB25AB36ABF101C3A8D4A8E5A829
:10233000F6A881010D5B1F4FC114D104E104F10423
:1023400091F487A990ADA1ADB2AD83AF94AFA5AF25
:10235000B6AF81E0181419041A041B040CF080E0D5
:10236000F801808340C0F10183AC94ACA5ACB6AC5D
:10237000A5019401C501B4010E9460352B013C0107
:10238000C701B6010E94983320E030E040E850E4F5
:102390000E94F73320E030E040E85FE30E946035C0
:1023A0009B01AC01C301B2010E94CC359B01AC0181
:1023B000C501B4010E945F354B015C01F101FF963C
:1023C00040805180628073809201A3010E94743624
:1023D000181614F042015301A401B501F10143AFF5
:1023E00054AF65AF76AFFFEFCF1ADF0AEF0AFF0AEF
:1023F000F101C3AAD4AAE5AAF6AA23AD34AD45AD2E
:1024000056ADCA01B90129833A834B835C830E948C
:102410004536F10163A374A385A396A329813A816C
:102420004B815C8160E074E284E799E40E94CC35E2
:10243000F101638B748B858B968BF80120812111C0
:1024400008C0DC01CB01B058F101838B948BA58BC4
:10245000B68B0F900F900F900F90DF91CF911F913F
:102460000F91FF90EF90DF90CF90BF90AF909F9033
:102470008F907F906F905F904F903F902F90089536
:10248000CF92DF92EF92FF920F931F93CF93DF9340
:10249000EC016A017B019A01AB016F89788D898D0E
:1024A0009A8D0E949133882309F446C0CF8AD88E32
:1024B000E98EFA8E8E01015C1F4FA701960160E044
:1024C00074E284E799E40E94CC35F801608371835B
:1024D000828393838BA99CA9ADA9BEA9181619065E
:1024E0001A061B064CF56B897C898D899E899B0198
:1024F000AC010E94F7336B017C016B8D7C8D8D8D5F
:102500009E8D9B01AC010E9460359B01AC01C7010F
:10251000B6010E94CC350E943E366BAB7CAB8DABD6
:102520009EABCE01DF91CF911F910F91FF90EF9065
:10253000DF90CF900C94CE10DF91CF911F910F912F
:10254000FF90EF90DF90CF9008957F928F929F92AF
:10255000AF92BF92CF92DF92EF92FF920F931F93B1
:10256000CF93DF938C01F42EFC017080F8E07F9E06
:10257000E0011124FE01E853FC4F7483638344237C
:1025800009F474C0603282E078070CF03FC0653B0C
:10259000710514F064EB70E0F801818128E830E007
:1025A0004901881A910887FD9394D401AA0FBB1F93
:1025B000AA0FBB1F4D01BB0FAA08BB08DB0177FFA9
:1025C00002C0A0E0B0E0F801828128E532E0281BDB
:1025D000310987FD3395220F331F220F331FA901C5
:1025E000330F660B770B9A01AB01281939094A0999
:1025F0005B090E94113524EB30E040E050E00E947E
:10260000E734820E931EA41EB51EB401FBE0F7153D
:1026100008F4A3C0F8018181E8E8F0E0E81BF109C3
:1026200087FDF395EE0FFF1FEE0FFF1F6E177F075D
:102630008CF0F801228188E592E0821B910927FD48
:102640009395880F991F880F991FFB01861797078D
:102650000CF4FC018FB7F894C853DC4F3297EE0F9F
:10266000FF1FFE83ED83FF828FBF77C06032F2E0F1
:102670007F070CF03FC0653B710514F064EB70E020
:10268000F801818128E830E06901C81AD10887FD86
:10269000D394D601AA0FBB1FAA0FBB1F6D01BB0F9E
:1026A000EE08FF08DB0177FF02C0A0E0B0E0F80110
:1026B000828128E532E0281B310987FD3395220FFE
:1026C000331F220F331FA901330F660B770B9A01BB
:1026D000AB012C193D094E095F090E94113524EB0D
:1026E00030E040E050E00E94E734C20ED31EE41E0A
:1026F000F51EB601FE01E853FC4F74836383FBE0D3
:10270000F71558F1F801818148E850E0481B51095C
:1027100087FD5395440F551F440F551F64177507C8
:1027200084F0228188E592E0821B910927FD939530
:10273000880F991F880F991FAB01861797070CF414
:10274000AC018FB7F894C853DC4F42505109440F85
:10275000551F5A8349838FBF1F82DF91CF911F91ED
:102760000F91FF90EF90DF90CF90BF90AF909F9030
:102770008F907F90089585ED8093BC008091BC0080
:1027800084FDFCCF1092930508954091D102262F2D
:1027900030E0240F311D21323105DCF42091930506
:1027A0002430C9F4FC0180E090E0861758F43091A1
:1027B000D1022191DC01A155BD4FA30FB11D2C9376
:1027C0000196F3CF8091D102680F6093D10280E02F
:1027D000089581E0089582E00895089581E090E0F1
:1027E00030916C0520916B05321710F480E090E079
:1027F000919581959109089580916C0590916B0553
:10280000891730F48F5F80936C0580E090E0089525
:102810008FEF9FEF089580916B0590E020916C05FC
:10282000821B91090895CF92DF92EF92FF920F934E
:102830001F93CF93DF937C01262F972F8A018091DE
:102840009405882391F0C62FD72F6E01C40ED51E94
:10285000CC15DD0571F06991D701ED91FC910190E6
:10286000F081E02DC7010995F3CF642F822F0E94DC
:10287000C513C801DF91CF911F910F91FF90EF9089
:10288000DF90CF900895CF93DF931F92CDB7DEB73F
:102890006983209194052223D1F02091B60520323E
:1028A00040F021E030E0FC013383228380E090E0BF
:1028B00015C080919505E82FF0E0EA56FA4F99810E
:1028C00090838F5F809395058093B60505C061E086
:1028D000CE0101960E94C51381E090E00F90DF9138
:1028E000CF910895809127038823C1F080914702FA
:1028F0009091480297FF03C091958195910920918D
:10290000F6023091F7022817390741F460E085E0BC
:102910000E94160760E086E00E9416078091280357
:102920008823C1F08091490290914A0297FF03C029
:102930009195819591092091F6023091F70228171F
:10294000390741F460E089E00E94160760E08AE000
:102950000E941607809129038823C1F080914B02C1
:1029600090914C0297FF03C0919581959109209118
:10297000F6023091F7022817390741F460E087E04A
:102980000E94160760E088E00E94160780912A03E3
:102990008823C1F080914D0290914E0297FF03C0B1
:1029A0009195819591092091F6023091F7022817AF
:1029B000390741F460E08CE00E94160760E08DE08A
:1029C0000E9416078091F6029091F702019690936B
:1029D000F7028093F6028F3F91050CF484C080913A
:1029E0002703882341F060E085E00E94160760E03D
:1029F00086E00E94160780912803882341F060E05A
:102A000089E00E94160760E08AE00E941607809124
:102A10002903882341F060E087E00E94160760E008
:102A200088E00E94160780912A03882341F060E025
:102A30008CE00E94160760E08DE00E94160710925D
:102A4000F7021092F60280912703882381F080918B
:102A5000470290914802181619061CF461E085E0BF
:102A600004C0892B21F061E086E00E941607809166
:102A70002803882381F08091490290914A02181618
:102A800019061CF461E08AE004C0892B21F061E0A2
:102A900089E00E94160780912903882381F08091A4
:102AA0004B0290914C02181619061CF461E087E065
:102AB00004C0892B21F061E088E00E941607809114
:102AC0002A03882381F080914D0290914E021816BE
:102AD00019061CF461E08DE004C0892B21F061E04F
:102AE0008CE00C94160708951F93CF93DF93EC01AD
:102AF000162F88818C3008F048C061E0812F0E9439
:102B00004607888198E0899FF0011124E853FC4F23
:102B10001F739081907C192B108319821A826CE0AC
:102B20000E94D9369CE0899FA001112420E030E06A
:102B3000F901E40FF51F93E0EE0FFF1F9A95E1F7FF
:102B4000E853FC4F908196FD16C02F5F3F4F2C300D
:102B5000310571F781110FC01092800082E08093DF
:102B600081001092850010928400B19A80916F00CC
:102B7000826080936F00E88188E0E89FF001112473
:102B8000E853FC4F8081806480838881DF91CF91FE
:102B90001F9108951F920F920FB60F9211242F9339
:102BA0003F934F935F936F937F938F939F93AF93D5
:102BB000BF93EF93FF938091F80287FF05C01092B7
:102BC00085001092840016C02091F802022E000C9D
:102BD000330B8091280490E0281739075CF4E091CA
:102BE000F80228E0E202F0011124E853FC4F808152
:102BF00086FD15C08091F8028F5F8093F8022091C6
:102C0000F802022E000C330B8091280490E0281764
:102C100039079CF48091F8028C3034F10EC0E091B9
:102C2000F80228E0E202F0011124E853FC4F808111
:102C300060E08F730E941607DDCF80918400909131
:102C4000850084349C4918F480E49CE905C0809197
:102C50008400909185000496909389008093880069
:102C60008FEF8093F802EDC0E091F80288E0E8026F
:102C7000F0011124E853FC4F8781882309F4B5C083
:102C8000A091F802E091F80288E0A802D001112496
:102C9000A853BC4F28E0E202F0011124E853FC4F96
:102CA00015962D913C91169781819281A091F80201
:102CB000E091F8028217930708F04BC088E0E80221
:102CC000F0011124E853FC4F28E0A202D0011124A6
:102CD000A853BC4F17962C9181819281820F911D30
:102CE00092838183A091F802E091F80288E0A80223
:102CF000D0011124A853BC4F28E0E202F0011124B6
:102D0000E853FC4F15962D913C9116978181928145
:102D10008217930708F469C0E091F802A091F802C5
:102D200088E0E802F0011124E853FC4F28E0A202F9
:102D3000D0011124A853BC4F15968D919C911697E4
:102D400092838183E091F80288E0E802F001112487
:102D500049C028E0E202F0011124E853FC4F88E06A
:102D6000A802D0011124A853BC4F17962C91818141
:102D70009281821B910992838183A091F802E09154
:102D8000F80228E0A202D0011124A853BC4F88E029
:102D9000E802F0011124E853FC4F15962D913C9167
:102DA00016978181928128173907F8F0E091F8028F
:102DB000A091F80228E0E202F0011124E853FC4F50
:102DC00088E0A802D0011124A853BC4F15968D911C
:102DD0009C91169792838183E091F80228E0E202A9
:102DE000F0011124E853FC4F1782209184003091A8
:102DF0008500E091F80288E0E802F0011124E85330
:102E0000FC4F81819281820F931F90938900809360
:102E10008800E091F80228E0E202F0011124E85372
:102E2000FC4F808186FF0DC0E091F80288E0E80247
:102E3000F0011124E853FC4F808161E08F730E9400
:102E40001607FF91EF91BF91AF919F918F917F9165
:102E50006F915F914F913F912F910F900FBE0F9007
:102E60001F9018951F920F920FB60F9211242F9357
:102E70003F934F935F936F937F938F939F93AF9302
:102E8000BF93EF93FF9380913F0290914002809314
:102E9000B20080913B0290913C02A0913D02B09122
:102EA0003E020196A11DB11D80933B0290933C020E
:102EB000A0933D02B0933E0280913B0290913C0270
:102EC000A0913D02B0913E024091430250914402D4
:102ED000609145027091460284179507A607B707CF
:102EE00010F180913A0281111EC081E080933A0274
:102EF00080913B0290913C02A0913D02B0913E0234
:102F0000841B950BA60BB70B80933B0290933C025E
:102F1000A0933D02B0933E02E0914102F091420243
:102F2000099510923A02FF91EF91BF91AF919F9155
:102F30008F917F916F915F914F913F912F910F9062
:102F40000FBE0F901F9018951F920F920FB60F9201
:102F500011242F933F934F935F936F937F938F939E
:102F60009F93AF93BF93EF93FF938091B900887FB6
:102F7000803609F49CC068F5883209F45BC090F48F
:102F8000803109F454C038F4882309F4F6C088303D
:102F900009F44DC0F6C0883109F44CC0803209F400
:102FA0005DC0EFC0803409F468C048F4803309F490
:102FB00055C0883309F0E5C080939105D8C08035AD
:102FC00009F44FC0883509F45DC0883409F0D9C0D0
:102FD000D6C0883909F4C7C0A8F4883709F467C097
:102FE00038F4883609F463C0803709F460C0C9C07A
:102FF000883809F4B8C0803909F45FC0803809F016
:10300000C0C05BC0803B09F486C038F4803A09F444
:1030100066C0883A09F47FC0B4C0803C09F4A7C0F8
:10302000883C09F4A4C0883B09F48AC0AAC08091F6
:103030006E0510C09091900580918F05981770F5DE
:10304000E091900581E08E0F80939005F0E0E159CA
:10305000FA4F80818093BB0085EC86C080939105F8
:103060008EC0E091900581E08E0F80939005809155
:10307000BB00F0E0E159FA4F808390919005809178
:103080008F056EC0E091900581E08E0F80939005D2
:103090008091BB00F0E0E159FA4F80838091920566
:1030A00081116DC081E080936D0584EA61C083E089
:1030B000809393051092F502CFCF8091F502803274
:1030C00008F051C0E091F50281E08E0F8093F50287
:1030D0008091BB00F0E0EB52FD4F8083BDCF85ECCB
:1030E0008093BC00109293058091F502803230F4F9
:1030F000E091F502F0E0EB52FD4F10826091F50295
:1031000070E0E091D302F091D40285ED92E0099550
:103110001092F50236C084E0809393051092D2029B
:103120001092D102E091CF02F091D00209958091E6
:10313000D102811105C081E08093D1021092AF02CB
:10314000E091D20281E08E0F8093D202F0E0E1554F
:10315000FD4F80818093BB009091D2028091D1027B
:10316000981708F479CF85E88093BC000AC085ECF5
:103170008093BC001092930504C0109291050E94A8
:10318000BB13FF91EF91BF91AF919F918F917F9171
:103190006F915F914F913F912F910F900FBE0F90C4
:1031A0001F9018956EEF71E08BE293E00E949306FA
:1031B00062E072E08BE293E00C949306CF92DF9290
:1031C000EF92FF92CF93DF93CDB7DEB72C970FB678
:1031D000F894DEBF0FBECDBF7B016A01BC018BE25C
:1031E00093E00E9493066BEE71E08BE293E00E9405
:1031F00093068EE0E816F104F4F0B7016E50710901
:103200004AE0CE0107960E94F90563E172E0CE0123
:1032100001960E944306BE01695F7F4FCE01019671
:103220000E94C2050E94F719CE0101960E94F40582
:10323000CE0107960CC04AE0B701CE0101960E946C
:10324000F905CE0101960E94F719CE0101960E9460
:10325000F4056BEE71E08BE293E00E9493060D2C77
:10326000000CEE08FF08F7FE0CC08DE20E94431A26
:1032700066277727CB016C197D098E099F094AE0E3
:1032800003C04AE0C701B6010E94001A60E172E083
:103290008BE293E00E947E062C960FB6F894DEBF78
:1032A0000FBECDBFDF91CF91FF90EF90DF90CF9019
:1032B0000895CF93DF93EB01FC0160816134E1F469
:1032C0003F932F935F934F93DF93CF9325E132E0AA
:1032D0003F932F939F938F930E941F3988819981E9
:1032E0000E96998388838DB79EB70A960FB6F89489
:1032F0009EBF0FBE8DBF16C03F932F935F934F931A
:10330000DF93CF9321EC31E03F932F939F938F93E3
:103310000E941F398DB79EB70A960FB6F8949EBFCC
:103320000FBE8DBFDF91CF910895CF93DF93EB0157
:10333000FC0120812134D1F45F934F93DF936F938D
:1033400020E232E03F932F939F938F930E941F3987
:10335000888199810E96998388838DB79EB7089648
:103360000FB6F8949EBF0FBE8DBF14C05F934F93EE
:10337000DF936F9324EC31E03F932F939F938F93D0
:103380000E941F398DB79EB708960FB6F8949EBF5E
:103390000FBE8DBFDF91CF910895CF93DF93EB01E7
:1033A000FC012081213481F4DF936F9328E232E025
:1033B0003F932F939F938F930E941F398881998108
:1033C0000E96998388830AC0DF936F9327EC31E0D0
:1033D0003F932F939F938F930E941F390F900F90CD
:1033E0000F900F900F900F90DF91CF910895FC01F7
:1033F00044815581608171818BE293E00C9441039B
:103400008F929F92AF92BF920F931F93CF93DF93B0
:10341000CDB7DEB7A1970FB6F894DEBF0FBECDBF14
:1034200019A2423008F44AE08E010F5D1F4F842E2E
:10343000912CA12CB12CA50194010E94C534E62F3A
:10344000B901CA0101501109EA3014F4E05D01C06C
:10345000E95CD801EC93232B242B252B61F7B801D1
:103460008BE293E00E947E06A1960FB6F894DEBF31
:103470000FBECDBFDF91CF911F910F91BF90AF9045
:103480009F908F900895E0912B03F0912C03019071
:10349000F081E02D682F8BE293E009944F925F92C8
:1034A0006F927F928F929F92AF92BF92CF92DF9254
:1034B000EF92FF926B017C01B42E9B01AC010E9444
:1034C000BF36882319F06DE272E027C0260137016C
:1034D000E89477F82FEF3FEF4FE75FE7C301B201C2
:1034E0000E94BF3681110DC02FEF3FEF4FE75FE71E
:1034F000C301B2010E94913318161CF461E372E01B
:103500000CC02FEF3FEF4FE75FE4C701B6010E9409
:103510007436181694F465E372E08BE293E0FF9042
:10352000EF90DF90CF90BF90AF909F908F907F9063
:103530006F905F904F900C947E062FEF3FEF4FE718
:103540005FECC701B6010E94913387FDE4CF20E014
:1035500030E0A901C701B6010E94913387FF09C07D
:103560008DE20E94431A4C01F7FAF094F7F8F094B8
:1035700002C0812C912CA12C60E070E080E09FE3E0
:10358000AB1441F020E030E040E251E40E94CC3541
:10359000A394F6CF9B01AC01C701B6010E94603530
:1035A0002B013C010E9445366B017C010E94963341
:1035B0009B01AC01C301B2010E945F352B013C01AC
:1035C0004AE0C701B6010E94001A7C01E80CF91C10
:1035D000BB2029F08EE20E94431AE80EF91EDB2C74
:1035E000DD2021F120E030E040E251E4C301B201EE
:1035F0000E94F7332B013C010E9445364B01A12C60
:10360000B12C4AE0C501B4010E94001AE80EF91E6F
:10361000C501B4010E9496339B01AC01C301B20104
:103620000E945F352B013C01DA94DACFC701FF908D
:10363000EF90DF90CF90BF90AF909F908F907F9052
:103640006F905F904F900895DC0190915B049923F7
:1036500061F0699FB0011124672F499FA0011124D7
:10366000452F299F90011124232F309161048091CF
:103670005E04E0915C04F0915D04381308C0CD0154
:10368000880F991F8A0F9B1F8E0F9F1F0BC0CD01A4
:10369000880F991F880F991F8E0F9F1FFC01E30F42
:1036A000F11D108230915E04FC01E30FF11D608377
:1036B00030915F04FC01E30FF11D40833091600401
:1036C000FC01E30FF11D208308951F93CF93DF9337
:1036D00011E0180F20915B041217A1F1C0915C0456
:1036E000D0915D042150B9F08F3F59F430E040E0B3
:1036F00050E06FEF7FEF80E090E00E94E734B90187
:103700000CC0812F90E0982F88270197622F70E0DE
:103710000E94E53602C060E070E0FE01409158046E
:1037200050915904CF018C1B9D0B8417950740F4D1
:103730004081469FC001479F900D11249193EECF89
:1037400010935B04DF91CF911F910895CF93DF9386
:10375000BC018BE293E00E947E06EC0160E172E026
:103760008BE293E00E947E068C0F9D1FDF91CF912C
:103770000895CF92DF92EF92FF920F931F93CF9312
:10378000DF93F82EEB0161E00E94460760E08F2D89
:103790000E94160783E090E00197F1F761E08F2D1A
:1037A0000E94160783E290E00197F1F760E08F2D09
:1037B0000E94160760E08C2F0E944607DD27FE015D
:1037C000EB5EF94F6491FE01EF5FF94FE491F0E099
:1037D000EE0FFF1FE950FA4F8591949100EE13E927
:1037E00024E030E0462F0E947A20611571058105A2
:1037F000910539F0DC01CB010196A11DB11DBF700F
:1038000003C080E090E0DC01BC0180E090E00E9419
:1038100096332DEC3CEC48E652E40E94CC356B012B
:103820007C0120E030E040EC50E40E947436181631
:1038300054F42AE037ED43EA5FE3C701B6010E9482
:10384000F7336B017C0120E030E0A901C701B6012C
:103850000E949133811107C0C12C80ECD82E89E7DA
:10386000E82E84E4F82EC701B6010E943E36CB0153
:10387000DF91CF911F910F91FF90EF90DF90CF904C
:1038800008952F923F924F925F926F927F928F9204
:103890009F92AF92BF92CF92DF92EF92FF920F93DF
:1038A0001F93CF93DF9300D000D0CDB7DEB7109237
:1038B0002703109228031092290310922A03809064
:1038C000530590905405A0905505B0905605DC0125
:1038D000CB01880D991DAA1DBB1D809353059093A4
:1038E0005405A0935505B0935605809157059091C6
:1038F0005805A0915905B0915A05080F191F2A1FA4
:103900003B1F00935705109358052093590530939A
:103910005A05BA01550F880B990B0E949833AB01D9
:10392000BC0182EC94E00E944012B701FF0C880BAE
:10393000990B0E949833AB01BC018EE794E00E9482
:10394000401280907D0443E5E42E45E0F42E59E6D4
:10395000252E54E0352E912C10E000E0B12CA12C46
:103960009814B9F1F70181919191A191B1917F01E1
:10397000F101C190D1901F01F60143845484658404
:103980007684BC01CD01641975098609970997FFF2
:1039900007C090958095709561957F4F8F4F9F4F91
:1039A0000E949833F6012789308D418D528D0E94F7
:1039B000CC353B016C01212F302F4B2D5A2D0E940D
:1039C0007436181624F4162D072DBC2CAD2C9394A8
:1039D000C7CF20E030E0A901612F702F8B2D9A2DE9
:1039E0000E94743618160CF054C0D12C80917D04BE
:1039F000D81608F04EC08D2D90E0FC01EE0FFF1F91
:103A0000EE0FFF1FED5AFA4F4080518062807380A5
:103A10004C01880C991CF401E759FB4FE080F180C0
:103A2000F70183859485A585B685A3019201281B9E
:103A3000390B4A0B5B0BCA01B9010E949833212F45
:103A4000302F4B2D5A2D0E94CC35AB01BC01F70114
:103A500087859089A189B28984159505A605B70542
:103A600079F04786508A618A728AC70149835A83EE
:103A70006B837C830E94CE107C816B815A8149814B
:103A8000F401E759FB4F808191810E945210D39439
:103A9000ADCF80E0F12C90917D04F91620F5EF2D4B
:103AA000F0E0EE0FFF1FE759FB4F0190F081E02D92
:103AB00007851089218932894385548565857685F6
:103AC000041715072607370761F083A194A1A5A164
:103AD000B6A1892B8A2B8B2B19F0CF010E948D095F
:103AE00081E0F394D8CF8111D4CF82EC94E00E948E
:103AF000B6078EE794E00F900F900F900F90DF9134
:103B0000CF911F910F91FF90EF90DF90CF90BF90DA
:103B1000AF909F908F907F906F905F904F903F906D
:103B20002F900C94B607CF93DF930E94F719EC0106
:103B300060E172E08BE293E00E947E068C0F9D1F95
:103B4000DF91CF9108959FB7F894A9EFB2E09196D5
:103B5000ED91FC919297208190968C91822B80839D
:103B60009FBF08959FB7F894A9EFB2E05E96ED91DC
:103B7000FC915F9720815D968C91822B80839FBF03
:103B800008959FB7F894A9EFB2E05B96ED91FC9190
:103B90005C9720815A968C91822B80839FBF0895D9
:103BA0008F929F92AF92BF92CF92DF92EF92FF924D
:103BB0000F931F93CF93DF93C0E0D0E010E0E82E87
:103BC000880FFF088BE0C82ED12C812C912C54013A
:103BD00083940C2FC7010C2E02C0959587950A94EB
:103BE000E2F780FF03C00E94B21D0DC02FB7F8940A
:103BF000E0911703F091180390818091160380954E
:103C0000892380832FBF2FB7F894E0911403F0919C
:103C100015039081809113038095892380832FBFA2
:103C2000C6010197F1F7E0911D03F0911E03908109
:103C300080911C03892351F0D501C40104C0880F71
:103C4000991FAA1FBB1F0A95D2F7182B0E94C11DEE
:103C50002196C830D10509F0BCCF0E94B21D87E083
:103C600090E00197F1F7812FDF91CF911F910F9194
:103C7000FF90EF90DF90CF90BF90AF909F908F908C
:103C800008952FB7F894A9EFB2E09196ED91FC91C9
:103C90009297908190968C918095892380832FBFF5
:103CA0000895EF92FF920F931F93CF93DF937C01C0
:103CB000C62F0E94411E8701D0E0C8018E199F09BE
:103CC0008C179D0734F4F80181918F010E94D01D5B
:103CD000F4CF0E94A31D6091230370E080E090E088
:103CE000DF91CF911F910F91FF90EF900C945508A9
:103CF00065E085E291E00E94511E69E08CE191E06F
:103D00000E94511E80912503882329F065E087E1F8
:103D100091E00E94511E80912603882329F069E0DA
:103D20008EE091E00E94511E69E085E091E00C94E4
:103D3000511E2091B6059091B705213208F04AC076
:103D4000809193058111FCCF32E03093930531E0EF
:103D5000309392053FEF3093910510929005209398
:103D60008F05A6E9B5E04FE655E0FA013E2F341B7A
:103D7000321718F43D913193F9CF10926E052091CE
:103D80006E05990F922B90936E0590916D05913071
:103D900061F410926D0590916E059093BB00909127
:103DA000BC0093FDF8CF95EC01C095EE9093BC005C
:103DB000909193059230E1F3909191059F3F79F0B6
:103DC00080919105803241F080919105803331F0EE
:103DD00084E005C081E003C082E001C083E010926E
:103DE00095051092B6051092940508956F927F92F2
:103DF0008F929F92AF92BF92CF92DF92EF92FF92FB
:103E00001F93CF93DF93CDB7DEB729970FB6F89402
:103E1000DEBF0FBECDBF182F0E948F08C0901F03BA
:103E2000D0902003E0902103F09022036C197D09CB
:103E30008E099F090E9496336B017C0120E030E8D7
:103E40004BEB54E40E947436181614F40E94781E4A
:103E50006091230370E080E090E00E9498334B0172
:103E60005C019B01AC01C701B6010E94913387FF41
:103E70000AC0A7019601C501B4010E945F350E94E6
:103E800045360E945508112371F0212F30E0AFEB29
:103E9000B0E00E9450352FEF30E040E050E00E944B
:103EA000E73410E4120FCE0101967C0189E0F7019E
:103EB00011928A95E9F781E0898382E48A831D83E0
:103EC00015E027E0C22ED12C5E01FAE0AF0EB11C46
:103ED0000E94B21D0E94C11D0E94411EC601019791
:103EE000F1F7470199EF692E92E0792EF401819163
:103EF0004F010E94D01DF30181933F018A149B045E
:103F0000A9F78091FA02893741F00E94A31D8091A0
:103F1000FA02807F803789F41CC082E0882E83E01B
:103F2000982E80E00E94D01DF40181934F01FEE0A5
:103F30008F16F3E09F06A9F7E8CF0E94781E6091E4
:103F4000230370E080E090E00E945508115009F0D2
:103F5000BFCF8091FA02807F803739F080912303B0
:103F60008A3018F48F5F809323038091110390911E
:103F700012039093100380930F038091FC029091A1
:103F8000FD0290931203809311030E948F086093A7
:103F90001F03709320038093210390932203909139
:103FA000FA02907F81E0903709F080E029960FB601
:103FB000F894DEBF0FBECDBFDF91CF911F91FF9070
:103FC000EF90DF90CF90BF90AF909F908F907F90B9
:103FD0006F9008950F931F93CF93DF9380915304B5
:103FE00091E0909394058093B705109295051092F7
:103FF000B60560E086E495E00E944314C3E4D4E093
:104000008E01688186E495E00E9443142296F801AF
:10401000618186E495E00E944314F4E0C335DF0734
:1040200079F7DF91CF911F910F910C94991E0F9307
:104030001F93CF9309E214E080E7F80182A7109262
:104040006C0510926B05109295051092B6051092B2
:104050009305C1E0C093920510926D0561E082E185
:104060000E94160761E083E10E941607E9EBF0E089
:1040700080818E7F808380818D7F808388E48093A0
:10408000B80085E48093BC00F80182A5C093940534
:104090008093B705109295051092B60561E286E40B
:1040A00095E00E9443140E94991EF80182A5C093D6
:1040B00094058093B705109295051092B60561E8B6
:1040C00086E495E00E9443140E94991EF80182A59F
:1040D000C09394058093B705109295051092B6058C
:1040E0006FEE86E495E00E944314CF911F910F91EB
:1040F0000C94991ECF92DF92EF92FF920F931F9331
:10410000E82FF92F05C0015011092109310961F18A
:10411000908196239417B9F305C001501109210924
:10412000310911F1908196239413F7CFC12CD12C32
:10413000E12CF12C0AC08FEFC81AD80AE80AF80A55
:104140000C151D052E053F0579F080818623841707
:1041500091F36C2D7D2D8E2D9F2D1F910F91FF9032
:10416000EF90DF90CF90089560E070E080E090E005
:104170001F910F91FF90EF90DF90CF900895CF9314
:10418000DF93CDB7DEB7E8970FB6F894DEBF0FBE6A
:10419000CDBF789484B5826084BD84B5816084BDD0
:1041A00085B5826085BD85B5816085BD80916E00D5
:1041B000816080936E001092810080918100826006
:1041C0008093810080918100816080938100809143
:1041D00080008160809380008091B1008460809332
:1041E000B1008091B00081608093B00080917A002E
:1041F000846080937A0080917A00826080937A0054
:1042000080917A00816080937A0080917A00806842
:1042100080937A001092C100E0913B03F0913C033F
:1042200082E08083E0913703F09138031082E091BF
:104230003903F0913A0380E1808310924303E091C7
:104240003F03F091400386E08083E0913D03F091CD
:104250003E03808180618083E0913D03F0913E03C5
:10426000808188608083E0913D03F0913E038081EE
:1042700080688083E0913D03F0913E0380818F7DD3
:1042800080830E94D21840E050E066E174E482EC42
:1042900094E00E94401240E050E068E473E482EC55
:1042A00094E00E94170940E050E066E174E48EE774
:1042B00094E00E94401240E050E068E473E48EE72E
:1042C00094E00E941709E0917D04EA3068F481E0EF
:1042D0008E0F80937D04F0E0EE0FFF1FE759FB4F38
:1042E00082EC94E091838083E0917D04EA3068F46D
:1042F00081E08E0F80937D04F0E0EE0FFF1FE75901
:10430000FB4F8EE794E091838083109257051092C3
:1043100058051092590510925A05109253051092A3
:104320005405109255051092560581E0809328039C
:104330008093270310922A031092290380E090EBC8
:10434000ACE5B6E480935B0590935C05A0935D05B6
:10435000B0935E058CEF99EAA1EFBDE380935F0512
:1043600090936005A0936105B093620503E615E0A4
:10437000780161E0D8018D918D010E94460760E0CF
:10438000F70180810E941607F5E00B361F0781F7C1
:1043900004E311E061E0D8018D918D010E94460790
:1043A000B1E00E331B07B1F781E090E0A0E0B0E090
:1043B0008093430290934402A0934502B093460237
:1043C00082E794E1909342028093410280917000D1
:1043D0008E7F809370008091B0008C7F8093B000BE
:1043E0008091B100877F8093B1008091B6008F7D6E
:1043F0008093B600809170008D7F809370008091D3
:10440000B10084608093B1008091B1008C7F809373
:10441000B10087EE90E09093400280933F021092AB
:104420003B0210923C0210923D0210923E0210920A
:104430003A0280913F02909140028093B2008091B5
:10444000700081608093700080915A0487FD08C0DD
:1044500061E00E94460760E080915A040E941607BE
:1044600081E08093550484E60E94651BFE0131962D
:104470001F018BE293E00E948E03892B11F40C94B0
:10448000E22D8BE293E00E946C03A091A502E1E093
:10449000EA0FE093A5020A2E000CBB0BAB59BD4FEF
:1044A0008C938A3011F00C94D82D0E2E000CFF0B3B
:1044B000EB59FD4F1082809165028D3411F00C9400
:1044C000CF2D86E692E00E9483318C01AE01485EDA
:1044D0005F4F6BEE71E086E692E00E94AA310436EF
:1044E000110509F408C50CF08BC00830110509F45A
:1044F00073C2FCF40330110509F449C174F40130AE
:10450000110509F427C10CF033C1012B11F00C94F3
:10451000CF2D0E94D2180C94CF2D0530110509F42F
:10452000C0C10CF446C10630110509F4D4C10C9485
:10453000CF2D0431110509F4AAC3ACF40A301105DA
:1045400009F48EC30CF471C20B30110511F00C94F8
:10455000CF2DB101888D998D0E94CD1989810E943E
:10456000651B0C94CF2D0631110509F464C40CF4BD
:10457000F7C30E31110509F48DC40F31110511F087
:104580000C94CF2D3F922F92CE010A969F938F933A
:1045900006969F938F9381EC91E09F938F93898DE3
:1045A0008F93888D8F930E941F39E980FA801A8536
:1045B0008B85088999890093610290936202109318
:1045C0005F028093600261E0802F0E94460761E0F5
:1045D000812F0E94460760E0802F0E94160760E04E
:1045E000812F0E941607B701FF0C880B990B0E94C0
:1045F000550861E0802F0E94160761E0812F78C482
:104600000D3C110511F40C94062B0CF076C0083605
:10461000110509F469C70CF04EC0998D888D0636D6
:10462000110509F4C1C40CF00EC53F922F9227EC7E
:1046300031E03F932F939F938F930E941F3969819D
:104640007A81072E000C880B990B0E9498336B011E
:104650007C0140905B0550905C0560905D0570901A
:104660005E05A30192010E94F73320E030E048ECA0
:1046700052E40E94CC350E943E364B015C01C701DA
:10468000B6019058A30192010E94F73320E030E078
:1046900048EC52E40E94CC350E943E36B4EFEB2E3B
:1046A000FF24F3949501840144EF51E00E94411CE2
:1046B00088ED91E0BFC4083C110509F422C79CF4C1
:1046C0000936110511F00C94CF2D888D998D0E941B
:1046D0007F3160935F0570936005809361059093CF
:1046E00062050C94CF2D0B3C110509F428C70C3C36
:1046F000110509F436C70C94CF2D0C3D110511F4AA
:104700000C944E2C8CF4043D110511F40C94EB2BFD
:10471000053D110511F40C94102C013D110511F00B
:104720000C94CF2D0C94452B0E3D110511F40C94D7
:10473000762D14F40C94612D0A3F110511F40C949C
:104740009D2D073E134011F00C94CF2D0C940000CA
:104750000C94CF2DA101BE01665F7F4F888D998D8E
:104760000E94951969818A850E9446070C94CF2D75
:10477000A101BE01665F7F4F888D998D0E949519BA
:1047800061E08A850E94460769818A8534C0B1014B
:10479000888D998D0E94CD1960E089810E9446071D
:1047A00089810E94ED0669817A81AC0181EB91E0FB
:1047B0008EC0A101BE01665F7F4F888D998D0E94DA
:1047C00095190A851B850330110551F0C80105971D
:1047D0008230910528F00497039710F00C94CF2DA8
:1047E000E980FA8061E0802F0E944607E114F1041D
:1047F00031F460E0802F0E9416070C94CF2D2FEF2C
:10480000E216F10409F44BC0F801FF27E153FF4F12
:10481000E491E33011F150F4E130C9F0E230D1F528
:1048200084B5806284BDE8BC0C94CF2DE73001F1E3
:10483000E83039F1E43071F5809180008062809336
:104840008000F0928B00E0928A000C94CF2D84B50A
:10485000806884BDE7BC0C94CF2D80918000806877
:1048600080938000F0928900E09288000C94CF2D14
:104870008091B00080688093B000E092B3000C9407
:10488000CF2D8091B00080628093B000E092B400A0
:104890000C94CF2D30E8E316F1040CF4AACF61E0BC
:1048A000A9CFB101888D998D0E94CD1960E08981D1
:1048B0000E94460789810E94D40769817A816E30FF
:1048C000710514F40C94CF2DAC0184EB91E00E949F
:1048D000DE180C94CF2D9101AE01465F5F4FBE01F3
:1048E000605F7F4F888D998D0E945919E888F988FB
:1048F00089809A802A853B85032E000C440B550B3A
:10490000A12CB12C211531054105510531F4C5010A
:10491000B4010E9455080C94CF2D60E472E48FE03E
:1049200090E00E94C534DA01C901B695A795979524
:10493000879589A39AA3ABA3BCA3C7019927FC01C0
:10494000EB5EF94FF4908F5F994FFC016491E62F75
:10495000F0E0EE0FFF1FE351FF4F05911491FC01B2
:104960008491E82FF0E0EE0FFF1FED51FF4FA5916E
:10497000B4918C918F298C932DAB3EAB48AF5FAB3C
:104980000E948F082B013C01EF2CE0942DA93EA939
:10499000690189A19AA1C81AD90A0E948F08DC016D
:1049A000CB0184199509A609B70988159905AA05A7
:1049B000BB0510F00C94CF2DD8018C918F298C93CE
:1049C00089A19AA10E94EB07F80180818E21808342
:1049D000C6010E94EB07E1CF85E10E94D4078C015C
:1049E00067EB71E08BE293E00E9493066BEE71E05F
:1049F0008BE293E00E949306B801110F880B990B8C
:104A00000E94983320E030E040E85AE30E94F733F8
:104A100026E636E646EA50E40E94F7339B01AC01F5
:104A20000E94603542E00C94C42DE88DF98DA08180
:104A3000BE01665F7F4FAE01405F5F4F9E012E5EFD
:104A40003F4FCE014496A134C1F43F922F927F9301
:104A50006F935F934F933F932F939F938F938AEB23
:104A600091E09F938F93FF93EF930E941F398C895E
:104A70009D890E969D8B8C8B12C03F922F927F93B7
:104A80006F935F934F933F932F939F938F938BEBF2
:104A900091E09F938F93FF93EF930E941F390FB67E
:104AA000F894DEBF0FBECDBFF9800A851889CA8889
:104AB000DB886C8984E594E00E94E508C114D10488
:104AC000B9F4C12CD12C8091560490915704C8168A
:104AD000D90630F42F2D402F612FC6010E94241BD0
:104AE0009FEFC91AD90AC114A1E0DA0661F70EC016
:104AF000C6010197209156043091570482179307FD
:104B000028F42F2D402F612F0E94241B80915C04DC
:104B100090915D04892B11F40C94CF2D0E943008E4
:104B20000091620410916304209164043091650443
:104B3000DC01CB01801B910BA20BB30BC297A1052B
:104B4000B10560F3F89480915804909159049F8BBB
:104B50008E8BE0915C04F0915D04DF011196808101
:104B600088A390915404E0916604F09167048091C9
:104B70006804992309F42EC09081982B9F8F90810F
:104B8000809589238E8F8E8D8B8F88E08A8F4F8DB5
:104B90005E8D68A13A8D2B8D8E899F89408367FD3C
:104BA000242F3A952083252F39F0661F00C000007E
:104BB0005083000000C0F2CF38E06D9150830000B8
:104BC000019761F7F0936704E093660468A33A8F56
:104BD0002B8F38C09081982B9F8F9081809589234F
:104BE0008E8F8E8D8D8F88E08C8F4F8D5E8D68A11E
:104BF0003C8D2D8D8E899F89408367FD242F00C0B9
:104C000000C0208300C000C000C000C000C05083AE
:104C10000000252F3A9541F0661F000000C000C03B
:104C200000C000C000C0E8CF38E06D9100C05083E4
:104C300000C0019709F7F0936704E093660468A346
:104C40003C8F2D8F9F8B8E8B78940E9430086093C1
:104C500062047093630480936404909365049FC717
:104C6000B101888D998D0E94CD1960E089810E94E3
:104C7000460789810E94ED0641E050E0892B11F042
:104C800040E050E069817A818BEC91E020CE088D84
:104C9000198DF80101900020E9F731977F01E01AA2
:104CA000F10A0E941720E3E4F4E011921192B4E0BB
:104CB000E335FB07D1F781E080933D0410923F0478
:104CC00081E090E090933C0480933B0490933A04FD
:104CD00080933904E5E0EE16F10484F41092360472
:104CE000109235041092380410923704B80189E20A
:104CF00094E00E9493060E94EA1F2FC08EEF9FEF60
:104D00008E199F0925E0289F7001299FF00C11241E
:104D1000C12CD12CE3E4F4E01192119224E0E335AC
:104D2000F207D1F7D0923604C092350410923804BD
:104D300010923704B80189E294E00E9493060E9421
:104D4000EA1F64E670E080E090E00E94550831E0E0
:104D5000C31AD108CE14DF04ECF68FEC91E01DC726
:104D6000E88CF98C87010D5F1F4F2FE4C22E22E0E3
:104D7000D22E43E2E40EF11CF80133978081809338
:104D80000201319680818093030131968081809366
:104D90000001D8018C918093010140E150E060E076
:104DA00070E080E091E00E946D30F60161937193B4
:104DB0006F010C5F1F4F0E151F05F1F60E941720A3
:104DC000E3E4F4E01192119224E0E335F207D1F725
:104DD000B12CE12CF12C6701CC0CDD1C00E010E0C3
:104DE000C80187709927892B11F0BB0C0BC0F80103
:104DF00093E0F595E7959A95E1F7EC0DFD1DE15BE4
:104E0000FD4FB080B7FE08C021E030E0A701B80137
:104E100089E294E00E94420F0F5F1F4F003111059D
:104E2000F9F63FEFE31AF30A48E0E416F10499F6C5
:104E30000E94EA1FB4C63F922F92CE010A969F931A
:104E40008F9306969F938F9302969F938F930296CC
:104E50009F938F938BEB91E09F938F93898D8F938B
:104E6000888D8F930E941F39E980FA800A851B85FF
:104E700088889988AA88BB88CC88DD880E941720FA
:104E80009401A501B60189E294E00E94400E0E94BF
:104E9000EA1FF5C33F922F92CE010A969F938F93FC
:104EA00006969F938F9381EC91E09F938F93898DCA
:104EB0008F93888D8F930E941F3909811A81DA841C
:104EC000E090610268898E2D0E941607F0905F02C3
:104ED0006D2D8F2D0E941607B801110F880B990BAD
:104EE0000E94550861E08E2D0E94160761E08F2D0B
:104EF0000E941607C4C33F922F92CE010A969F9339
:104F00008F9306969F938F9381EC91E09F938F935D
:104F1000898D8F93888D8F930E941F396A857B8539
:104F2000CB01770FAA0BBB0BBC01CD010BE0660FC9
:104F3000771F881F991F0A95D1F728E631E040E0D6
:104F400050E00E94E73449015A019981990F990F65
:104F5000990F80E06CE370E00E94F936AB017A8330
:104F60006983888999890FB6F894DEBF0FBECDBFDB
:104F70008130910551F414EFE12EFF24F39400E009
:104F800010E09801C501B4010AC0029751F47B01F9
:104F90009501840144EF51E060E070E0CB010E9494
:104FA000411C83ED91E0F9C53F922F9227EC31E04F
:104FB0003F932F939F938F930E941F3969817A812A
:104FC000072E000C880B990B0E94983320E030E0EC
:104FD00044E353E40E94CC3523EC35EF48E450E43D
:104FE0000E94F73320915B0530915C0540915D058F
:104FF00050915E050E94F73320915F053091600566
:1050000040916105509162050E94F73320E030E045
:1050100040E05FE30E94F7330E943E36A4EFEA2EA1
:10502000FF24F3948B019C0144EF51E00E94411C4A
:105030008DED91E00E94A61B0F900F900F900F90A6
:105040000F900F90ACC53F922F92CE010A969F937E
:105050008F9384EC91E09F938F93898D8F93888DAC
:105060008F930E941F396A857B85072E000C880B61
:10507000990B0E94983320E030E048EC52E40E9403
:10508000CC356DA37EA38FA398A79B01AC016AE0EA
:1050900077ED83EA9CE30E94CC354B015C0169818A
:1050A0007A81072E000C880B990B0E949833905838
:1050B00020E030E044E353E40E94CC352BED3FE0A8
:1050C00049E450E40E94F7336DA77EA78FA798AB01
:1050D00020E030E040E05FE360915F0570916005A3
:1050E00080916105909162050E94F73369A77AA7C4
:1050F0008BA79CA72DA13EA14FA158A50E94CC35FE
:105100002B013C0180915B0590915C05A0915D05B0
:10511000B0915E0589A39AA3ABA3BCA3A30192019E
:1051200060E070E080E89FE30E945F359B01AC0186
:10513000C501B4010E94F73329A13AA14BA15CA19A
:105140000E94F7336B017C0120E030E040E85FE330
:10515000C301B2010E9460359B01AC01C501B401DD
:105160000E94F73329A13AA14BA15CA10E94F73319
:105170004B015C0129A53AA54BA55CA56DA17EA1BB
:105180008FA198A50E945F359B01AC016DA57EA5FE
:105190008FA598A90E94F73329A13AA14BA15CA140
:1051A0000E94F73369AB7AAB8BAB9CAB4DA45EA48A
:1051B0006FA478A877FA709477F8709429A53AA527
:1051C0004BA55CA56DA17EA18FA198A50E9460351D
:1051D0009B01AC01C301B2010E94F73329A13AA19E
:1051E0004BA15CA10E94F73369A37AA38BA39CA374
:1051F0000FB6F894DEBF0FBECDBF20E030E0A901AE
:10520000C701B6010E94743626013701181624F032
:1052100077FA709477F8709420E030E0A901C50126
:10522000B4010E947436A501940118160CF4F6C45A
:105230005058C301B2010E94743618160CF520E0D4
:1052400030E0A901C701B6010E94743618165CF45B
:1052500020E030E04AEF53E4C701B6010E94743603
:1052600018165CF00DC020E030E04AEF53ECC701A7
:10527000B6010E94913387FF03C0A701960120C0A9
:1052800020E030E0A901C501B4010E94743618166F
:105290005CF420E030E04AEF53E4C501B4010E9421
:1052A000743618165CF024C020E030E04AEF53EC6E
:1052B000C501B4010E94913387FF1AC0A501940172
:1052C00060E070E08AEF93E40E94CC352B013C0152
:1052D0009B01AC01C701B6010E94F7336B017C0151
:1052E000A3019201C501B4010E94F7334B015C0197
:1052F00069A97AA98BA99CA90E943E360091CD0488
:105300001091CE042091CF043091D004DC01CB0168
:10531000800F911FA21FB31F0091D1041091D204DE
:105320002091D3043091D404081719072A073B07AA
:1053300061F08093D1049093D204A093D304B093EE
:10534000D40482EC94E00E94CE10B701A60182EC56
:1053500094E00E94521069A17AA18BA19CA10E94A5
:105360003E360091890410918A0420918B0430917B
:105370008C04DC01CB01800F911FA21FB31F009191
:105380008D0410918E0420918F04309190040817A1
:1053900019072A073B0761F080938D0490938E04D0
:1053A000A0938F04B09390048EE794E00E94CE10F7
:1053B000B501A4018EE794E00E9452104091D104FF
:1053C0005091D2046091D3047091D4048091CD04A3
:1053D0009091CE04A091CF04B091D0044817590702
:1053E0006A077B0749F082EC94E00E94D9098EE7B6
:1053F00094E00E94D909E2CF40918D0450918E042F
:1054000060918F04709190048091890490918A0436
:10541000A0918B04B0918C04481759076A077B0749
:1054200011F78091530590915405A0915505B091C5
:1054300056058093CD049093CE04A093CF04B093EF
:10544000D0048093D1049093D204A093D304B0935A
:10545000D4041092F5041092F6041092F7041092FE
:10546000F8041092E5041092E6041092E7041092FA
:10547000E8041092D5041092D6041092D70410922A
:10548000D8048091570590915805A0915905B09185
:105490005A058093890490938A04A0938B04B09357
:1054A0008C0480938D0490938E04A0938F04B0930A
:1054B00090041092B1041092B2041092B3041092AE
:1054C000B4041092A1041092A2041092A3041092AA
:1054D000A4041092910410929204109293041092DA
:1054E000940489EF91E059C3888D998D0E947F3192
:1054F00060935B0570935C0580935D0590935E05FA
:105500004EC3888D998D1B861A861A821982A10135
:10551000BE01665F7F4F0E94951929813A818A8575
:105520009B85F894FC01E95DFC4F41E04083880FC6
:10553000991FFC01E95BFD4F318320834AC1F89438
:10554000109248021092470210924A0210924902A9
:1055500010924C0210924B0210924E0210924D0289
:1055600038C19101AE01465F5F4FBE01605F7F4F62
:10557000888D998D0E94591969817A818A859B85C8
:10558000288939896115710599F4F89441E04093AF
:105590002703409328031092290310922A03309383
:1055A00048022093470290934A028093490211C116
:1055B000F89441E040932703409328031092290375
:1055C00010922A03309348022093470290934A0294
:1055D000809349027894072E000C880B990B0E9447
:1055E0005508F894109248021092470210924A020D
:1055F0001092490210924C0210924B0210924E02ED
:1056000010924D02789482EE91E0C7C23F922F92A1
:10561000CE010A969F938F9306969F938F9302963F
:105620009F938F938EEB91E09F938F93898D8F93B0
:10563000888D8F930E941F3929813A814A855B8525
:1056400068897989EA89FB89F89481E08093270346
:10565000809328038093290380932A03F0934802C0
:10566000E093470270934A026093490250934C02C0
:1056700040934B0230934E0220934D0278940FB624
:10568000F894DEBF0FBECDBF8AC2288D398D198A2E
:10569000188A1B861A861A8219823F922F92CE018F
:1056A0000A969F938F9306969F938F9381EC91E038
:1056B0009F938F933F932F930E941F3909811A81E3
:1056C0006A857B85072E000C880B990B0E94983306
:1056D00023EF34E045E35FE30E94CC350E943E3681
:1056E0006B017C0168897989072E000C880B990B66
:1056F0000E94983323EF34E045E35FE30E94CC350A
:105700000E943E36AB014C0D5D1D9B012C193D09DD
:10571000EE27FF27EC19FD09E61BF70BC61AD70A7F
:10572000200F311FBF01600F711FC00ED11E040F6B
:10573000151F0FB6F894DEBF0FBECDBF0F3F11058A
:1057400019F014F00FEF10E02F3F310519F014F0AD
:105750002FEF30E06F3F710519F014F06FEF70E03C
:10576000C6018F3F910519F014F08FEF90E0F89487
:1057700041E040932703409328034093290340933B
:105780002A030130AFEF1A0714F401E01FEF109362
:105790004802009347022130BFEF3B0714F421E099
:1057A0003FEF30934A02209349026130EFEF7E07CA
:1057B00014F461E07FEF70934C0260934B028130F0
:1057C000FFEF9F0714F481E09FEF90934E028093C8
:1057D0004D027894E4C19101AE01465F5F4FBE0176
:1057E000605F7F4F888D998D0E9459194981EA84A5
:1057F000FB848889998926E0289F8001299F100DC4
:105800001124065F1A4FD801EC91B8E0EB9FF0012C
:105810001124E853FC4F208126FD3BC0FC0130C021
:105820009101AE01465F5F4FBE01605F7F4F888D83
:10583000998D0E9459194981288939898A859B85C2
:105840008A559109880F991F63E070E00E94F9362C
:105850007B01EAE5EE0EF11C86E0829F8001839FCA
:10586000100D1124065F1A4FD801EC91B8E0EB9FA0
:10587000F0011124E853FC4F808186FD0AC0F90134
:10588000EC5CFE4F608170E0C80148AF0E94741567
:1058900048ADB701C8010E94A51281C10BE010E01C
:1058A00080E1A82E86E0B82E96E2892E96E0992E09
:1058B0000150110909F4FCC0E3E2F6E08491809301
:1058C0001303EFE0F6E08491E82FF0E0EE0FFF1F06
:1058D000E351FF4F859194919093150380931403A6
:1058E000E5E2F6E0849180931603E1E1F6E084912D
:1058F000E82FF0E0EE0FFF1FE351FF4F85919491E9
:105900009093180380931703E4E2F6E08491809368
:105910001903F5018491E82FF0E0EE0FFF1FE3512A
:10592000FF4F8591949190931B0380931A03F40188
:10593000849180931C03E2E1F6E0E491F0E0EE0F45
:10594000FF1FE950FA4F8591949190931E03809325
:105950001D0361E08EE00E94460761E08FE00E9437
:10596000460761E080E10E94460760E081E10E9415
:10597000460761E081E10E9416070E94B21D0E9465
:10598000C11D80E00E94F61E80E00E94F61E8091FC
:10599000FA02813429F0833719F0893709F088CF6A
:1059A00081E0809323033BE0E32EF12C55245394B4
:1059B00065E085E291E00E94511E87E090E001974A
:1059C000F1F70E94B21D0E94C11D0E94411E87E096
:1059D00090E00197F1F72EE3622E21E0722E610133
:1059E000D3018D913D010E94D01DF60181936F017D
:1059F000F7E46F16F1E07F0699F70E94A31D8C81F2
:105A00008093240369E08CE191E00E94511E65E0DF
:105A100087E191E00E94511E5092250369E08EE0DB
:105A200091E00E94511E5092260369E085E091E0CA
:105A30000E94511E80E00E94F61E8091FA02893772
:105A400071F0833709F434CF21E0E21AF10809F448
:105A50002FCF809123038F5F80932303A9CF81E011
:105A600080936402F8941AEF10936302789464EFC1
:105A700071E080E090E00E945508F8941092630273
:105A8000789468EC70E080E090E00E945508F8940B
:105A900010936302789464EF71E080E090E00E94DC
:105AA0005508F89410926302789460E070E002C0A8
:105AB0006FEF7FEF4AE0C1010E94F90567EE71E0E8
:105AC00029C0BE01605F7F4F888D998D0E94CD19DE
:105AD000E889F989FF27E750FD4F608170E04AE0CF
